{
    "contractName": "MedicalRecords",
    "abi": [
        {
            "anonymous": false,
            "inputs": [
                {
                    "indexed": false,
                    "internalType": "uint256",
                    "name": "recordId",
                    "type": "uint256"
                },
                {
                    "indexed": false,
                    "internalType": "uint256",
                    "name": "timestamp",
                    "type": "uint256"
                },
                {
                    "indexed": false,
                    "internalType": "string",
                    "name": "name",
                    "type": "string"
                },
                {
                    "indexed": false,
                    "internalType": "uint256",
                    "name": "age",
                    "type": "uint256"
                },
                {
                    "indexed": false,
                    "internalType": "string",
                    "name": "gender",
                    "type": "string"
                },
                {
                    "indexed": false,
                    "internalType": "string",
                    "name": "bloodType",
                    "type": "string"
                },
                {
                    "indexed": false,
                    "internalType": "string",
                    "name": "allergies",
                    "type": "string"
                },
                {
                    "indexed": false,
                    "internalType": "string",
                    "name": "diagnosis",
                    "type": "string"
                },
                {
                    "indexed": false,
                    "internalType": "string",
                    "name": "treatment",
                    "type": "string"
                }
            ],
            "name": "MedicalRecords__AddRecord",
            "type": "event"
        },
        {
            "anonymous": false,
            "inputs": [
                {
                    "indexed": false,
                    "internalType": "uint256",
                    "name": "recordId",
                    "type": "uint256"
                },
                {
                    "indexed": false,
                    "internalType": "uint256",
                    "name": "timestamp",
                    "type": "uint256"
                },
                {
                    "indexed": false,
                    "internalType": "string",
                    "name": "name",
                    "type": "string"
                },
                {
                    "indexed": false,
                    "internalType": "uint256",
                    "name": "age",
                    "type": "uint256"
                },
                {
                    "indexed": false,
                    "internalType": "string",
                    "name": "gender",
                    "type": "string"
                },
                {
                    "indexed": false,
                    "internalType": "string",
                    "name": "bloodType",
                    "type": "string"
                },
                {
                    "indexed": false,
                    "internalType": "string",
                    "name": "allergies",
                    "type": "string"
                },
                {
                    "indexed": false,
                    "internalType": "string",
                    "name": "diagnosis",
                    "type": "string"
                },
                {
                    "indexed": false,
                    "internalType": "string",
                    "name": "treatment",
                    "type": "string"
                }
            ],
            "name": "MedicalRecords__DeleteRecord",
            "type": "event"
        },
        {
            "inputs": [
                {
                    "internalType": "string",
                    "name": "_name",
                    "type": "string"
                },
                {
                    "internalType": "uint256",
                    "name": "_age",
                    "type": "uint256"
                },
                {
                    "internalType": "string",
                    "name": "_gender",
                    "type": "string"
                },
                {
                    "internalType": "string",
                    "name": "_bloodType",
                    "type": "string"
                },
                {
                    "internalType": "string",
                    "name": "_allergies",
                    "type": "string"
                },
                {
                    "internalType": "string",
                    "name": "_diagnosis",
                    "type": "string"
                },
                {
                    "internalType": "string",
                    "name": "_treatment",
                    "type": "string"
                }
            ],
            "name": "addRecord",
            "outputs": [],
            "stateMutability": "nonpayable",
            "type": "function"
        },
        {
            "inputs": [
                {
                    "internalType": "uint256",
                    "name": "_recordId",
                    "type": "uint256"
                }
            ],
            "name": "deleteRecord",
            "outputs": [],
            "stateMutability": "nonpayable",
            "type": "function"
        },
        {
            "inputs": [
                {
                    "internalType": "uint256",
                    "name": "_recordId",
                    "type": "uint256"
                }
            ],
            "name": "getAge",
            "outputs": [
                {
                    "internalType": "uint256",
                    "name": "",
                    "type": "uint256"
                }
            ],
            "stateMutability": "view",
            "type": "function"
        },
        {
            "inputs": [
                {
                    "internalType": "uint256",
                    "name": "_recordId",
                    "type": "uint256"
                }
            ],
            "name": "getAllergies",
            "outputs": [
                {
                    "internalType": "string",
                    "name": "",
                    "type": "string"
                }
            ],
            "stateMutability": "view",
            "type": "function"
        },
        {
            "inputs": [
                {
                    "internalType": "uint256",
                    "name": "_recordId",
                    "type": "uint256"
                }
            ],
            "name": "getBloodType",
            "outputs": [
                {
                    "internalType": "string",
                    "name": "",
                    "type": "string"
                }
            ],
            "stateMutability": "view",
            "type": "function"
        },
        {
            "inputs": [
                {
                    "internalType": "uint256",
                    "name": "_recordId",
                    "type": "uint256"
                }
            ],
            "name": "getDeleted",
            "outputs": [
                {
                    "internalType": "bool",
                    "name": "",
                    "type": "bool"
                }
            ],
            "stateMutability": "view",
            "type": "function"
        },
        {
            "inputs": [
                {
                    "internalType": "uint256",
                    "name": "_recordId",
                    "type": "uint256"
                }
            ],
            "name": "getDiagnosis",
            "outputs": [
                {
                    "internalType": "string",
                    "name": "",
                    "type": "string"
                }
            ],
            "stateMutability": "view",
            "type": "function"
        },
        {
            "inputs": [
                {
                    "internalType": "uint256",
                    "name": "_recordId",
                    "type": "uint256"
                }
            ],
            "name": "getGender",
            "outputs": [
                {
                    "internalType": "string",
                    "name": "",
                    "type": "string"
                }
            ],
            "stateMutability": "view",
            "type": "function"
        },
        {
            "inputs": [
                {
                    "internalType": "uint256",
                    "name": "_recordId",
                    "type": "uint256"
                }
            ],
            "name": "getName",
            "outputs": [
                {
                    "internalType": "string",
                    "name": "",
                    "type": "string"
                }
            ],
            "stateMutability": "view",
            "type": "function"
        },
        {
            "inputs": [
                {
                    "internalType": "uint256",
                    "name": "_recordId",
                    "type": "uint256"
                }
            ],
            "name": "getRecord",
            "outputs": [
                {
                    "internalType": "uint256",
                    "name": "",
                    "type": "uint256"
                },
                {
                    "internalType": "string",
                    "name": "",
                    "type": "string"
                },
                {
                    "internalType": "uint256",
                    "name": "",
                    "type": "uint256"
                },
                {
                    "internalType": "string",
                    "name": "",
                    "type": "string"
                },
                {
                    "internalType": "string",
                    "name": "",
                    "type": "string"
                },
                {
                    "internalType": "string",
                    "name": "",
                    "type": "string"
                },
                {
                    "internalType": "string",
                    "name": "",
                    "type": "string"
                },
                {
                    "internalType": "string",
                    "name": "",
                    "type": "string"
                }
            ],
            "stateMutability": "view",
            "type": "function"
        },
        {
            "inputs": [],
            "name": "getRecordId",
            "outputs": [
                {
                    "internalType": "uint256",
                    "name": "",
                    "type": "uint256"
                }
            ],
            "stateMutability": "view",
            "type": "function"
        },
        {
            "inputs": [
                {
                    "internalType": "uint256",
                    "name": "_recordId",
                    "type": "uint256"
                }
            ],
            "name": "getTimeStamp",
            "outputs": [
                {
                    "internalType": "uint256",
                    "name": "",
                    "type": "uint256"
                }
            ],
            "stateMutability": "view",
            "type": "function"
        },
        {
            "inputs": [
                {
                    "internalType": "uint256",
                    "name": "_recordId",
                    "type": "uint256"
                }
            ],
            "name": "getTreatment",
            "outputs": [
                {
                    "internalType": "string",
                    "name": "",
                    "type": "string"
                }
            ],
            "stateMutability": "view",
            "type": "function"
        },
        {
            "inputs": [
                {
                    "internalType": "uint256",
                    "name": "",
                    "type": "uint256"
                }
            ],
            "name": "isDeleted",
            "outputs": [
                {
                    "internalType": "bool",
                    "name": "",
                    "type": "bool"
                }
            ],
            "stateMutability": "view",
            "type": "function"
        },
        {
            "inputs": [],
            "name": "recordId",
            "outputs": [
                {
                    "internalType": "uint256",
                    "name": "",
                    "type": "uint256"
                }
            ],
            "stateMutability": "view",
            "type": "function"
        }
    ],
    "bytecode": "608060405234801561001057600080fd5b50610fc1806100206000396000f3fe608060405234801561001057600080fd5b50600436106100f55760003560e01c806394182c3611610097578063b810793e11610066578063b810793e1461024b578063e06d2eb51461025e578063f26c5f5f14610271578063f7dfe22b1461028457600080fd5b806394182c36146101da57806397f6c84c1461020d57806399055dda14610220578063ab5969461461022857600080fd5b806333c3f9a4116100d357806333c3f9a4146101705780636747f391146101835780636b8ff574146101a757806373c440db146101c757600080fd5b806303e9e609146100fa578063061f98111461012a5780630e37008a1461013f575b600080fd5b61010d6101083660046109c9565b61028d565b604051610121989796959493929190610a28565b60405180910390f35b61013d6101383660046109c9565b610638565b005b61016261014d3660046109c9565b60009081526001602052604090206003015490565b604051908152602001610121565b61013d61017e366004610b5e565b610727565b6101626101913660046109c9565b6000908152600160208190526040909120015490565b6101ba6101b53660046109c9565b610884565b6040516101219190610c5e565b6101ba6101d53660046109c9565b610929565b6101fd6101e83660046109c9565b60026020526000908152604090205460ff1681565b6040519015158152602001610121565b6101ba61021b3660046109c9565b610949565b600054610162565b6101fd6102363660046109c9565b60009081526002602052604090205460ff1690565b6101ba6102593660046109c9565b610969565b6101ba61026c3660046109c9565b610989565b6101ba61027f3660046109c9565b6109a9565b61016260005481565b60006060600060608060608060606000600160008b81526020019081526020016000209050806001015481600201826003015483600401846005018560060186600701876008018680546102e090610c78565b80601f016020809104026020016040519081016040528092919081815260200182805461030c90610c78565b80156103595780601f1061032e57610100808354040283529160200191610359565b820191906000526020600020905b81548152906001019060200180831161033c57829003601f168201915b5050505050965084805461036c90610c78565b80601f016020809104026020016040519081016040528092919081815260200182805461039890610c78565b80156103e55780601f106103ba576101008083540402835291602001916103e5565b820191906000526020600020905b8154815290600101906020018083116103c857829003601f168201915b505050505094508380546103f890610c78565b80601f016020809104026020016040519081016040528092919081815260200182805461042490610c78565b80156104715780601f1061044657610100808354040283529160200191610471565b820191906000526020600020905b81548152906001019060200180831161045457829003601f168201915b5050505050935082805461048490610c78565b80601f01602080910402602001604051908101604052809291908181526020018280546104b090610c78565b80156104fd5780601f106104d2576101008083540402835291602001916104fd565b820191906000526020600020905b8154815290600101906020018083116104e057829003601f168201915b5050505050925081805461051090610c78565b80601f016020809104026020016040519081016040528092919081815260200182805461053c90610c78565b80156105895780601f1061055e57610100808354040283529160200191610589565b820191906000526020600020905b81548152906001019060200180831161056c57829003601f168201915b5050505050915080805461059c90610c78565b80601f01602080910402602001604051908101604052809291908181526020018280546105c890610c78565b80156106155780601f106105ea57610100808354040283529160200191610615565b820191906000526020600020905b8154815290600101906020018083116105f857829003601f168201915b505050505090509850985098509850985098509850985050919395975091939597565b60008181526002602052604090205460ff161561069b5760405162461bcd60e51b815260206004820152601d60248201527f546865207265636f726420697320616c72656164792064656c65746564000000604482015260640160405180910390fd5b6000818152600160205260409081902080546003820154925191927f9f6d6d42feaf505d16bad36aa62866b87460b7e950ea40c554ef8bbfa8f0e5c692610703929142916002870191906004880190600589019060068a019060078b019060088c0190610d2f565b60405180910390a1506000908152600260205260409020805460ff19166001179055565b60008054908061073683610dca565b91905055506040518061012001604052806000548152602001428152602001888152602001878152602001868152602001858152602001848152602001838152602001828152506001600080548152602001908152602001600020600082015181600001556020820151816001015560408201518160020190816107ba9190610e40565b5060608201516003820155608082015160048201906107d99082610e40565b5060a082015160058201906107ee9082610e40565b5060c082015160068201906108039082610e40565b5060e082015160078201906108189082610e40565b50610100820151600882019061082e9082610e40565b509050507f3cd872dcecf0391593d478bf560910c59955e9a59702631641bd52b78cafd5db600054428989898989898960405161087399989796959493929190610f00565b60405180910390a150505050505050565b60008181526001602052604090206002018054606091906108a490610c78565b80601f01602080910402602001604051908101604052809291908181526020018280546108d090610c78565b801561091d5780601f106108f25761010080835404028352916020019161091d565b820191906000526020600020905b81548152906001019060200180831161090057829003601f168201915b50505050509050919050565b60008181526001602052604090206007018054606091906108a490610c78565b60008181526001602052604090206006018054606091906108a490610c78565b60008181526001602052604090206005018054606091906108a490610c78565b60008181526001602052604090206004018054606091906108a490610c78565b60008181526001602052604090206008018054606091906108a490610c78565b6000602082840312156109db57600080fd5b5035919050565b6000815180845260005b81811015610a08576020818501810151868301820152016109ec565b506000602082860101526020601f19601f83011685010191505092915050565b60006101008a8352806020840152610a428184018b6109e2565b90508860408401528281036060840152610a5c81896109e2565b90508281036080840152610a7081886109e2565b905082810360a0840152610a8481876109e2565b905082810360c0840152610a9881866109e2565b905082810360e0840152610aac81856109e2565b9b9a5050505050505050505050565b634e487b7160e01b600052604160045260246000fd5b600082601f830112610ae257600080fd5b813567ffffffffffffffff80821115610afd57610afd610abb565b604051601f8301601f19908116603f01168101908282118183101715610b2557610b25610abb565b81604052838152866020858801011115610b3e57600080fd5b836020870160208301376000602085830101528094505050505092915050565b600080600080600080600060e0888a031215610b7957600080fd5b873567ffffffffffffffff80821115610b9157600080fd5b610b9d8b838c01610ad1565b985060208a0135975060408a0135915080821115610bba57600080fd5b610bc68b838c01610ad1565b965060608a0135915080821115610bdc57600080fd5b610be88b838c01610ad1565b955060808a0135915080821115610bfe57600080fd5b610c0a8b838c01610ad1565b945060a08a0135915080821115610c2057600080fd5b610c2c8b838c01610ad1565b935060c08a0135915080821115610c4257600080fd5b50610c4f8a828b01610ad1565b91505092959891949750929550565b602081526000610c7160208301846109e2565b9392505050565b600181811c90821680610c8c57607f821691505b602082108103610cac57634e487b7160e01b600052602260045260246000fd5b50919050565b60008154610cbf81610c78565b808552602060018381168015610cdc5760018114610cf657610d24565b60ff1985168884015283151560051b880183019550610d24565b866000528260002060005b85811015610d1c5781548a8201860152908301908401610d01565b890184019650505b505050505092915050565b60006101208b83528a6020840152806040840152610d4f8184018b610cb2565b90508860608401528281036080840152610d698189610cb2565b905082810360a0840152610d7d8188610cb2565b905082810360c0840152610d918187610cb2565b905082810360e0840152610da58186610cb2565b9050828103610100840152610dba8185610cb2565b9c9b505050505050505050505050565b600060018201610dea57634e487b7160e01b600052601160045260246000fd5b5060010190565b601f821115610e3b57600081815260208120601f850160051c81016020861015610e185750805b601f850160051c820191505b81811015610e3757828155600101610e24565b5050505b505050565b815167ffffffffffffffff811115610e5a57610e5a610abb565b610e6e81610e688454610c78565b84610df1565b602080601f831160018114610ea35760008415610e8b5750858301515b600019600386901b1c1916600185901b178555610e37565b600085815260208120601f198616915b82811015610ed257888601518255948401946001909101908401610eb3565b5085821015610ef05787850151600019600388901b60f8161c191681555b5050505050600190811b01905550565b60006101208b83528a6020840152806040840152610f208184018b6109e2565b90508860608401528281036080840152610f3a81896109e2565b905082810360a0840152610f4e81886109e2565b905082810360c0840152610f6281876109e2565b905082810360e0840152610f7681866109e2565b9050828103610100840152610dba81856109e256fea26469706673582212208ffab99d9b78c6197a3379a4eaeb563c465f2d7a5e1d3d297c9402b5055fcb3364736f6c63430008130033",
    "sourcePath": "e:/Healthcare/client/contracts/MedicalRecord.sol",
    "compiler": {
        "name": "solc",
        "version": "0.8.19+commit.7dd6d404"
    },
    "functionHashes": {
        "addRecord(string,uint256,string,string,string,string,string)": "33c3f9a4",
        "deleteRecord(uint256)": "061f9811",
        "getAge(uint256)": "0e37008a",
        "getAllergies(uint256)": "97f6c84c",
        "getBloodType(uint256)": "b810793e",
        "getDeleted(uint256)": "ab596946",
        "getDiagnosis(uint256)": "73c440db",
        "getGender(uint256)": "e06d2eb5",
        "getName(uint256)": "6b8ff574",
        "getRecord(uint256)": "03e9e609",
        "getRecordId()": "99055dda",
        "getTimeStamp(uint256)": "6747f391",
        "getTreatment(uint256)": "f26c5f5f",
        "isDeleted(uint256)": "94182c36",
        "recordId()": "f7dfe22b"
    },
    "gasEstimates": {
        "creation": {
            "codeDepositCost": "806600",
            "executionCost": "844",
            "totalCost": "807444"
        },
        "external": {
            "addRecord(string,uint256,string,string,string,string,string)": "infinite",
            "deleteRecord(uint256)": "infinite",
            "getAge(uint256)": "2512",
            "getAllergies(uint256)": "infinite",
            "getBloodType(uint256)": "infinite",
            "getDeleted(uint256)": "2539",
            "getDiagnosis(uint256)": "infinite",
            "getGender(uint256)": "infinite",
            "getName(uint256)": "infinite",
            "getRecord(uint256)": "infinite",
            "getRecordId()": "2359",
            "getTimeStamp(uint256)": "2495",
            "getTreatment(uint256)": "infinite",
            "isDeleted(uint256)": "2473",
            "recordId()": "2383"
        }
    }
}