{
  "_format": "hh-sol-artifact-1",
  "contractName": "PersonalDataStorage",
  "sourceName": "contracts/PersonDataStorage.sol",
  "abi": [
    {
      "inputs": [],
      "name": "deletePersonalData",
      "outputs": [],
      "stateMutability": "nonpayable",
      "type": "function"
    },
    {
      "inputs": [
        {
          "internalType": "address",
          "name": "userAddress",
          "type": "address"
        }
      ],
      "name": "deleteUser",
      "outputs": [],
      "stateMutability": "nonpayable",
      "type": "function"
    },
    {
      "inputs": [],
      "name": "getAllUserPersonalData",
      "outputs": [
        {
          "internalType": "address[]",
          "name": "usersArray",
          "type": "address[]"
        },
        {
          "internalType": "string[]",
          "name": "names",
          "type": "string[]"
        },
        {
          "internalType": "uint256[]",
          "name": "ages",
          "type": "uint256[]"
        },
        {
          "internalType": "string[]",
          "name": "mobileNumbers",
          "type": "string[]"
        },
        {
          "internalType": "string[]",
          "name": "fathersNames",
          "type": "string[]"
        },
        {
          "internalType": "uint256[]",
          "name": "heights",
          "type": "uint256[]"
        },
        {
          "internalType": "uint256[]",
          "name": "weights",
          "type": "uint256[]"
        },
        {
          "internalType": "string[]",
          "name": "genders",
          "type": "string[]"
        }
      ],
      "stateMutability": "view",
      "type": "function"
    },
    {
      "inputs": [],
      "name": "getPersonalData",
      "outputs": [
        {
          "internalType": "string",
          "name": "name",
          "type": "string"
        },
        {
          "internalType": "uint256",
          "name": "age",
          "type": "uint256"
        },
        {
          "internalType": "string",
          "name": "mobileNumber",
          "type": "string"
        },
        {
          "internalType": "string",
          "name": "fathersName",
          "type": "string"
        },
        {
          "internalType": "uint256",
          "name": "height",
          "type": "uint256"
        },
        {
          "internalType": "uint256",
          "name": "weight",
          "type": "uint256"
        },
        {
          "internalType": "string",
          "name": "gender",
          "type": "string"
        }
      ],
      "stateMutability": "view",
      "type": "function"
    },
    {
      "inputs": [
        {
          "internalType": "address",
          "name": "",
          "type": "address"
        }
      ],
      "name": "personalData",
      "outputs": [
        {
          "internalType": "string",
          "name": "name",
          "type": "string"
        },
        {
          "internalType": "uint256",
          "name": "age",
          "type": "uint256"
        },
        {
          "internalType": "string",
          "name": "mobileNumber",
          "type": "string"
        },
        {
          "internalType": "string",
          "name": "fathersName",
          "type": "string"
        },
        {
          "internalType": "uint256",
          "name": "height",
          "type": "uint256"
        },
        {
          "internalType": "uint256",
          "name": "weight",
          "type": "uint256"
        },
        {
          "internalType": "string",
          "name": "gender",
          "type": "string"
        }
      ],
      "stateMutability": "view",
      "type": "function"
    },
    {
      "inputs": [
        {
          "internalType": "string",
          "name": "_name",
          "type": "string"
        },
        {
          "internalType": "uint256",
          "name": "_age",
          "type": "uint256"
        },
        {
          "internalType": "string",
          "name": "_mobileNumber",
          "type": "string"
        },
        {
          "internalType": "string",
          "name": "_fathersName",
          "type": "string"
        },
        {
          "internalType": "uint256",
          "name": "_height",
          "type": "uint256"
        },
        {
          "internalType": "uint256",
          "name": "_weight",
          "type": "uint256"
        },
        {
          "internalType": "string",
          "name": "_gender",
          "type": "string"
        }
      ],
      "name": "setPersonalData",
      "outputs": [],
      "stateMutability": "nonpayable",
      "type": "function"
    },
    {
      "inputs": [
        {
          "internalType": "address",
          "name": "userAddress",
          "type": "address"
        }
      ],
      "name": "userExists",
      "outputs": [
        {
          "internalType": "bool",
          "name": "",
          "type": "bool"
        }
      ],
      "stateMutability": "view",
      "type": "function"
    },
    {
      "inputs": [
        {
          "internalType": "uint256",
          "name": "",
          "type": "uint256"
        }
      ],
      "name": "users",
      "outputs": [
        {
          "internalType": "address",
          "name": "",
          "type": "address"
        }
      ],
      "stateMutability": "view",
      "type": "function"
    }
  ],
  "bytecode": "0x608060405234801561001057600080fd5b50611e7f806100206000396000f3fe608060405234801561001057600080fd5b50600436106100885760003560e01c8063acda85581161005b578063acda85581461012d578063aed31a6414610152578063b9cf3e591461015c578063ba1a471d1461019257610088565b80630e666e491461008d578063365b98b2146100bd5780635c60f226146100ed5780638a45223014610109575b600080fd5b6100a760048036038101906100a291906114a4565b6101ae565b6040516100b491906114ec565b60405180910390f35b6100d760048036038101906100d2919061153d565b61025d565b6040516100e49190611579565b60405180910390f35b610107600480360381019061010291906114a4565b61029c565b005b6101116103af565b604051610124979695949392919061163c565b60405180910390f35b6101356106a9565b60405161014998979695949392919061194f565b60405180910390f35b61015a610d93565b005b610176600480360381019061017191906114a4565b610e37565b604051610189979695949392919061163c565b60405180910390f35b6101ac60048036038101906101a79190611b3a565b611099565b005b600080600090505b600180549050811015610252578273ffffffffffffffffffffffffffffffffffffffff16600182815481106101ee576101ed611c4c565b5b9060005260206000200160009054906101000a900473ffffffffffffffffffffffffffffffffffffffff1673ffffffffffffffffffffffffffffffffffffffff16141561023f576001915050610258565b808061024a90611caa565b9150506101b6565b50600090505b919050565b6001818154811061026d57600080fd5b906000526020600020016000915054906101000a900473ffffffffffffffffffffffffffffffffffffffff1681565b8073ffffffffffffffffffffffffffffffffffffffff163373ffffffffffffffffffffffffffffffffffffffff161461030a576040517f08c379a000000000000000000000000000000000000000000000000000000000815260040161030190611d65565b60405180910390fd5b6000808273ffffffffffffffffffffffffffffffffffffffff1673ffffffffffffffffffffffffffffffffffffffff16815260200190815260200160002060008082016000610359919061134f565b6001820160009055600282016000610371919061134f565b600382016000610381919061134f565b600482016000905560058201600090556006820160006103a1919061134f565b50506103ac816111a8565b50565b60606000606080600080606060008060003373ffffffffffffffffffffffffffffffffffffffff1673ffffffffffffffffffffffffffffffffffffffff1681526020019081526020016000206040518060e001604052908160008201805461041690611db4565b80601f016020809104026020016040519081016040528092919081815260200182805461044290611db4565b801561048f5780601f106104645761010080835404028352916020019161048f565b820191906000526020600020905b81548152906001019060200180831161047257829003601f168201915b50505050508152602001600182015481526020016002820180546104b290611db4565b80601f01602080910402602001604051908101604052809291908181526020018280546104de90611db4565b801561052b5780601f106105005761010080835404028352916020019161052b565b820191906000526020600020905b81548152906001019060200180831161050e57829003601f168201915b5050505050815260200160038201805461054490611db4565b80601f016020809104026020016040519081016040528092919081815260200182805461057090611db4565b80156105bd5780601f10610592576101008083540402835291602001916105bd565b820191906000526020600020905b8154815290600101906020018083116105a057829003601f168201915b5050505050815260200160048201548152602001600582015481526020016006820180546105ea90611db4565b80601f016020809104026020016040519081016040528092919081815260200182805461061690611db4565b80156106635780601f1061063857610100808354040283529160200191610663565b820191906000526020600020905b81548152906001019060200180831161064657829003601f168201915b5050505050815250509050806000015181602001518260400151836060015184608001518560a001518660c0015197509750975097509750975097505090919293949596565b606080606080606080606080600060018054905090508067ffffffffffffffff8111156106d9576106d8611a0f565b5b6040519080825280602002602001820160405280156107075781602001602082028036833780820191505090505b5098508067ffffffffffffffff81111561072457610723611a0f565b5b60405190808252806020026020018201604052801561075757816020015b60608152602001906001900390816107425790505b5097508067ffffffffffffffff81111561077457610773611a0f565b5b6040519080825280602002602001820160405280156107a25781602001602082028036833780820191505090505b5096508067ffffffffffffffff8111156107bf576107be611a0f565b5b6040519080825280602002602001820160405280156107f257816020015b60608152602001906001900390816107dd5790505b5095508067ffffffffffffffff81111561080f5761080e611a0f565b5b60405190808252806020026020018201604052801561084257816020015b606081526020019060019003908161082d5790505b5094508067ffffffffffffffff81111561085f5761085e611a0f565b5b60405190808252806020026020018201604052801561088d5781602001602082028036833780820191505090505b5093508067ffffffffffffffff8111156108aa576108a9611a0f565b5b6040519080825280602002602001820160405280156108d85781602001602082028036833780820191505090505b5092508067ffffffffffffffff8111156108f5576108f4611a0f565b5b60405190808252806020026020018201604052801561092857816020015b60608152602001906001900390816109135790505b50915060005b81811015610d875760006001828154811061094c5761094b611c4c565b5b9060005260206000200160009054906101000a900473ffffffffffffffffffffffffffffffffffffffff16905060008060008373ffffffffffffffffffffffffffffffffffffffff1673ffffffffffffffffffffffffffffffffffffffff1681526020019081526020016000206040518060e00160405290816000820180546109d490611db4565b80601f0160208091040260200160405190810160405280929190818152602001828054610a0090611db4565b8015610a4d5780601f10610a2257610100808354040283529160200191610a4d565b820191906000526020600020905b815481529060010190602001808311610a3057829003601f168201915b5050505050815260200160018201548152602001600282018054610a7090611db4565b80601f0160208091040260200160405190810160405280929190818152602001828054610a9c90611db4565b8015610ae95780601f10610abe57610100808354040283529160200191610ae9565b820191906000526020600020905b815481529060010190602001808311610acc57829003601f168201915b50505050508152602001600382018054610b0290611db4565b80601f0160208091040260200160405190810160405280929190818152602001828054610b2e90611db4565b8015610b7b5780601f10610b5057610100808354040283529160200191610b7b565b820191906000526020600020905b815481529060010190602001808311610b5e57829003601f168201915b505050505081526020016004820154815260200160058201548152602001600682018054610ba890611db4565b80601f0160208091040260200160405190810160405280929190818152602001828054610bd490611db4565b8015610c215780601f10610bf657610100808354040283529160200191610c21565b820191906000526020600020905b815481529060010190602001808311610c0457829003601f168201915b5050505050815250509050818c8481518110610c4057610c3f611c4c565b5b602002602001019073ffffffffffffffffffffffffffffffffffffffff16908173ffffffffffffffffffffffffffffffffffffffff168152505080600001518b8481518110610c9257610c91611c4c565b5b602002602001018190525080602001518a8481518110610cb557610cb4611c4c565b5b6020026020010181815250508060400151898481518110610cd957610cd8611c4c565b5b60200260200101819052508060600151888481518110610cfc57610cfb611c4c565b5b60200260200101819052508060800151878481518110610d1f57610d1e611c4c565b5b6020026020010181815250508060a00151868481518110610d4357610d42611c4c565b5b6020026020010181815250508060c00151858481518110610d6757610d66611c4c565b5b602002602001018190525050508080610d7f90611caa565b91505061092e565b50509091929394959697565b6000803373ffffffffffffffffffffffffffffffffffffffff1673ffffffffffffffffffffffffffffffffffffffff16815260200190815260200160002060008082016000610de2919061134f565b6001820160009055600282016000610dfa919061134f565b600382016000610e0a919061134f565b60048201600090556005820160009055600682016000610e2a919061134f565b5050610e35336111a8565b565b6000602052806000526040600020600091509050806000018054610e5a90611db4565b80601f0160208091040260200160405190810160405280929190818152602001828054610e8690611db4565b8015610ed35780601f10610ea857610100808354040283529160200191610ed3565b820191906000526020600020905b815481529060010190602001808311610eb657829003601f168201915b505050505090806001015490806002018054610eee90611db4565b80601f0160208091040260200160405190810160405280929190818152602001828054610f1a90611db4565b8015610f675780601f10610f3c57610100808354040283529160200191610f67565b820191906000526020600020905b815481529060010190602001808311610f4a57829003601f168201915b505050505090806003018054610f7c90611db4565b80601f0160208091040260200160405190810160405280929190818152602001828054610fa890611db4565b8015610ff55780601f10610fca57610100808354040283529160200191610ff5565b820191906000526020600020905b815481529060010190602001808311610fd857829003601f168201915b50505050509080600401549080600501549080600601805461101690611db4565b80601f016020809104026020016040519081016040528092919081815260200182805461104290611db4565b801561108f5780601f106110645761010080835404028352916020019161108f565b820191906000526020600020905b81548152906001019060200180831161107257829003601f168201915b5050505050905087565b6040518060e00160405280888152602001878152602001868152602001858152602001848152602001838152602001828152506000803373ffffffffffffffffffffffffffffffffffffffff1673ffffffffffffffffffffffffffffffffffffffff168152602001908152602001600020600082015181600001908051906020019061112692919061138f565b5060208201518160010155604082015181600201908051906020019061114d92919061138f565b50606082015181600301908051906020019061116a92919061138f565b506080820151816004015560a0820151816005015560c082015181600601908051906020019061119b92919061138f565b5090505050505050505050565b60005b60018054905081101561134b578173ffffffffffffffffffffffffffffffffffffffff16600182815481106111e3576111e2611c4c565b5b9060005260206000200160009054906101000a900473ffffffffffffffffffffffffffffffffffffffff1673ffffffffffffffffffffffffffffffffffffffff161415611338576001808054905061123b9190611de6565b81146112ec5760018080805490506112539190611de6565b8154811061126457611263611c4c565b5b9060005260206000200160009054906101000a900473ffffffffffffffffffffffffffffffffffffffff16600182815481106112a3576112a2611c4c565b5b9060005260206000200160006101000a81548173ffffffffffffffffffffffffffffffffffffffff021916908373ffffffffffffffffffffffffffffffffffffffff1602179055505b60018054806112fe576112fd611e1a565b5b6001900381819060005260206000200160006101000a81549073ffffffffffffffffffffffffffffffffffffffff0219169055905561134b565b808061134390611caa565b9150506111ab565b5050565b50805461135b90611db4565b6000825580601f1061136d575061138c565b601f01602090049060005260206000209081019061138b9190611415565b5b50565b82805461139b90611db4565b90600052602060002090601f0160209004810192826113bd5760008555611404565b82601f106113d657805160ff1916838001178555611404565b82800160010185558215611404579182015b828111156114035782518255916020019190600101906113e8565b5b5090506114119190611415565b5090565b5b8082111561142e576000816000905550600101611416565b5090565b6000604051905090565b600080fd5b600080fd5b600073ffffffffffffffffffffffffffffffffffffffff82169050919050565b600061147182611446565b9050919050565b61148181611466565b811461148c57600080fd5b50565b60008135905061149e81611478565b92915050565b6000602082840312156114ba576114b961143c565b5b60006114c88482850161148f565b91505092915050565b60008115159050919050565b6114e6816114d1565b82525050565b600060208201905061150160008301846114dd565b92915050565b6000819050919050565b61151a81611507565b811461152557600080fd5b50565b60008135905061153781611511565b92915050565b6000602082840312156115535761155261143c565b5b600061156184828501611528565b91505092915050565b61157381611466565b82525050565b600060208201905061158e600083018461156a565b92915050565b600081519050919050565b600082825260208201905092915050565b60005b838110156115ce5780820151818401526020810190506115b3565b838111156115dd576000848401525b50505050565b6000601f19601f8301169050919050565b60006115ff82611594565b611609818561159f565b93506116198185602086016115b0565b611622816115e3565b840191505092915050565b61163681611507565b82525050565b600060e0820190508181036000830152611656818a6115f4565b9050611665602083018961162d565b818103604083015261167781886115f4565b9050818103606083015261168b81876115f4565b905061169a608083018661162d565b6116a760a083018561162d565b81810360c08301526116b981846115f4565b905098975050505050505050565b600081519050919050565b600082825260208201905092915050565b6000819050602082019050919050565b6116fc81611466565b82525050565b600061170e83836116f3565b60208301905092915050565b6000602082019050919050565b6000611732826116c7565b61173c81856116d2565b9350611747836116e3565b8060005b8381101561177857815161175f8882611702565b975061176a8361171a565b92505060018101905061174b565b5085935050505092915050565b600081519050919050565b600082825260208201905092915050565b6000819050602082019050919050565b600082825260208201905092915050565b60006117cd82611594565b6117d781856117b1565b93506117e78185602086016115b0565b6117f0816115e3565b840191505092915050565b600061180783836117c2565b905092915050565b6000602082019050919050565b600061182782611785565b6118318185611790565b935083602082028501611843856117a1565b8060005b8581101561187f578484038952815161186085826117fb565b945061186b8361180f565b925060208a01995050600181019050611847565b50829750879550505050505092915050565b600081519050919050565b600082825260208201905092915050565b6000819050602082019050919050565b6118c681611507565b82525050565b60006118d883836118bd565b60208301905092915050565b6000602082019050919050565b60006118fc82611891565b611906818561189c565b9350611911836118ad565b8060005b8381101561194257815161192988826118cc565b9750611934836118e4565b925050600181019050611915565b5085935050505092915050565b600061010082019050818103600083015261196a818b611727565b9050818103602083015261197e818a61181c565b9050818103604083015261199281896118f1565b905081810360608301526119a6818861181c565b905081810360808301526119ba818761181c565b905081810360a08301526119ce81866118f1565b905081810360c08301526119e281856118f1565b905081810360e08301526119f6818461181c565b90509998505050505050505050565b600080fd5b600080fd5b7f4e487b7100000000000000000000000000000000000000000000000000000000600052604160045260246000fd5b611a47826115e3565b810181811067ffffffffffffffff82111715611a6657611a65611a0f565b5b80604052505050565b6000611a79611432565b9050611a858282611a3e565b919050565b600067ffffffffffffffff821115611aa557611aa4611a0f565b5b611aae826115e3565b9050602081019050919050565b82818337600083830152505050565b6000611add611ad884611a8a565b611a6f565b905082815260208101848484011115611af957611af8611a0a565b5b611b04848285611abb565b509392505050565b600082601f830112611b2157611b20611a05565b5b8135611b31848260208601611aca565b91505092915050565b600080600080600080600060e0888a031215611b5957611b5861143c565b5b600088013567ffffffffffffffff811115611b7757611b76611441565b5b611b838a828b01611b0c565b9750506020611b948a828b01611528565b965050604088013567ffffffffffffffff811115611bb557611bb4611441565b5b611bc18a828b01611b0c565b955050606088013567ffffffffffffffff811115611be257611be1611441565b5b611bee8a828b01611b0c565b9450506080611bff8a828b01611528565b93505060a0611c108a828b01611528565b92505060c088013567ffffffffffffffff811115611c3157611c30611441565b5b611c3d8a828b01611b0c565b91505092959891949750929550565b7f4e487b7100000000000000000000000000000000000000000000000000000000600052603260045260246000fd5b7f4e487b7100000000000000000000000000000000000000000000000000000000600052601160045260246000fd5b6000611cb582611507565b91507fffffffffffffffffffffffffffffffffffffffffffffffffffffffffffffffff821415611ce857611ce7611c7b565b5b600182019050919050565b7f596f752063616e206f6e6c792064656c65746520796f7572206f776e2064617460008201527f612e000000000000000000000000000000000000000000000000000000000000602082015250565b6000611d4f60228361159f565b9150611d5a82611cf3565b604082019050919050565b60006020820190508181036000830152611d7e81611d42565b9050919050565b7f4e487b7100000000000000000000000000000000000000000000000000000000600052602260045260246000fd5b60006002820490506001821680611dcc57607f821691505b60208210811415611de057611ddf611d85565b5b50919050565b6000611df182611507565b9150611dfc83611507565b925082821015611e0f57611e0e611c7b565b5b828203905092915050565b7f4e487b7100000000000000000000000000000000000000000000000000000000600052603160045260246000fdfea264697066735822122075a2c4d5e0ee7526d3a411fffaab97a504652d7409e3bde372c3216fb46c420d64736f6c63430008090033",
  "linkReferences": {},
  "deployedLinkReferences": {}
}