{
  "_format": "hh-sol-artifact-1",
  "contractName": "MedicalRecords",
  "sourceName": "contracts/MedicalRecord.sol",
  "abi": [
    {
      "anonymous": false,
      "inputs": [
        {
          "indexed": false,
          "internalType": "uint256",
          "name": "recordId",
          "type": "uint256"
        },
        {
          "indexed": false,
          "internalType": "uint256",
          "name": "timestamp",
          "type": "uint256"
        },
        {
          "indexed": false,
          "internalType": "string",
          "name": "name",
          "type": "string"
        },
        {
          "indexed": false,
          "internalType": "uint256",
          "name": "age",
          "type": "uint256"
        },
        {
          "indexed": false,
          "internalType": "string",
          "name": "gender",
          "type": "string"
        },
        {
          "indexed": false,
          "internalType": "string",
          "name": "bloodType",
          "type": "string"
        },
        {
          "indexed": false,
          "internalType": "string",
          "name": "allergies",
          "type": "string"
        },
        {
          "indexed": false,
          "internalType": "string",
          "name": "diagnosis",
          "type": "string"
        },
        {
          "indexed": false,
          "internalType": "string",
          "name": "treatment",
          "type": "string"
        }
      ],
      "name": "MedicalRecords__AddRecord",
      "type": "event"
    },
    {
      "anonymous": false,
      "inputs": [
        {
          "indexed": false,
          "internalType": "uint256",
          "name": "recordId",
          "type": "uint256"
        },
        {
          "indexed": false,
          "internalType": "uint256",
          "name": "timestamp",
          "type": "uint256"
        },
        {
          "indexed": false,
          "internalType": "string",
          "name": "name",
          "type": "string"
        },
        {
          "indexed": false,
          "internalType": "uint256",
          "name": "age",
          "type": "uint256"
        },
        {
          "indexed": false,
          "internalType": "string",
          "name": "gender",
          "type": "string"
        },
        {
          "indexed": false,
          "internalType": "string",
          "name": "bloodType",
          "type": "string"
        },
        {
          "indexed": false,
          "internalType": "string",
          "name": "allergies",
          "type": "string"
        },
        {
          "indexed": false,
          "internalType": "string",
          "name": "diagnosis",
          "type": "string"
        },
        {
          "indexed": false,
          "internalType": "string",
          "name": "treatment",
          "type": "string"
        }
      ],
      "name": "MedicalRecords__DeleteRecord",
      "type": "event"
    },
    {
      "inputs": [
        {
          "internalType": "string",
          "name": "_name",
          "type": "string"
        },
        {
          "internalType": "uint256",
          "name": "_age",
          "type": "uint256"
        },
        {
          "internalType": "string",
          "name": "_gender",
          "type": "string"
        },
        {
          "internalType": "string",
          "name": "_bloodType",
          "type": "string"
        },
        {
          "internalType": "string",
          "name": "_allergies",
          "type": "string"
        },
        {
          "internalType": "string",
          "name": "_diagnosis",
          "type": "string"
        },
        {
          "internalType": "string",
          "name": "_treatment",
          "type": "string"
        }
      ],
      "name": "addRecord",
      "outputs": [],
      "stateMutability": "nonpayable",
      "type": "function"
    },
    {
      "inputs": [
        {
          "internalType": "uint256",
          "name": "_recordId",
          "type": "uint256"
        }
      ],
      "name": "deleteRecord",
      "outputs": [],
      "stateMutability": "nonpayable",
      "type": "function"
    },
    {
      "inputs": [
        {
          "internalType": "uint256",
          "name": "_recordId",
          "type": "uint256"
        }
      ],
      "name": "getAge",
      "outputs": [
        {
          "internalType": "uint256",
          "name": "",
          "type": "uint256"
        }
      ],
      "stateMutability": "view",
      "type": "function"
    },
    {
      "inputs": [
        {
          "internalType": "uint256",
          "name": "_recordId",
          "type": "uint256"
        }
      ],
      "name": "getAllergies",
      "outputs": [
        {
          "internalType": "string",
          "name": "",
          "type": "string"
        }
      ],
      "stateMutability": "view",
      "type": "function"
    },
    {
      "inputs": [
        {
          "internalType": "uint256",
          "name": "_recordId",
          "type": "uint256"
        }
      ],
      "name": "getBloodType",
      "outputs": [
        {
          "internalType": "string",
          "name": "",
          "type": "string"
        }
      ],
      "stateMutability": "view",
      "type": "function"
    },
    {
      "inputs": [
        {
          "internalType": "uint256",
          "name": "_recordId",
          "type": "uint256"
        }
      ],
      "name": "getDeleted",
      "outputs": [
        {
          "internalType": "bool",
          "name": "",
          "type": "bool"
        }
      ],
      "stateMutability": "view",
      "type": "function"
    },
    {
      "inputs": [
        {
          "internalType": "uint256",
          "name": "_recordId",
          "type": "uint256"
        }
      ],
      "name": "getDiagnosis",
      "outputs": [
        {
          "internalType": "string",
          "name": "",
          "type": "string"
        }
      ],
      "stateMutability": "view",
      "type": "function"
    },
    {
      "inputs": [
        {
          "internalType": "uint256",
          "name": "_recordId",
          "type": "uint256"
        }
      ],
      "name": "getGender",
      "outputs": [
        {
          "internalType": "string",
          "name": "",
          "type": "string"
        }
      ],
      "stateMutability": "view",
      "type": "function"
    },
    {
      "inputs": [
        {
          "internalType": "uint256",
          "name": "_recordId",
          "type": "uint256"
        }
      ],
      "name": "getName",
      "outputs": [
        {
          "internalType": "string",
          "name": "",
          "type": "string"
        }
      ],
      "stateMutability": "view",
      "type": "function"
    },
    {
      "inputs": [
        {
          "internalType": "uint256",
          "name": "_recordId",
          "type": "uint256"
        }
      ],
      "name": "getRecord",
      "outputs": [
        {
          "internalType": "uint256",
          "name": "",
          "type": "uint256"
        },
        {
          "internalType": "string",
          "name": "",
          "type": "string"
        },
        {
          "internalType": "uint256",
          "name": "",
          "type": "uint256"
        },
        {
          "internalType": "string",
          "name": "",
          "type": "string"
        },
        {
          "internalType": "string",
          "name": "",
          "type": "string"
        },
        {
          "internalType": "string",
          "name": "",
          "type": "string"
        },
        {
          "internalType": "string",
          "name": "",
          "type": "string"
        },
        {
          "internalType": "string",
          "name": "",
          "type": "string"
        }
      ],
      "stateMutability": "view",
      "type": "function"
    },
    {
      "inputs": [],
      "name": "getRecordId",
      "outputs": [
        {
          "internalType": "uint256",
          "name": "",
          "type": "uint256"
        }
      ],
      "stateMutability": "view",
      "type": "function"
    },
    {
      "inputs": [
        {
          "internalType": "uint256",
          "name": "_recordId",
          "type": "uint256"
        }
      ],
      "name": "getTimeStamp",
      "outputs": [
        {
          "internalType": "uint256",
          "name": "",
          "type": "uint256"
        }
      ],
      "stateMutability": "view",
      "type": "function"
    },
    {
      "inputs": [
        {
          "internalType": "uint256",
          "name": "_recordId",
          "type": "uint256"
        }
      ],
      "name": "getTreatment",
      "outputs": [
        {
          "internalType": "string",
          "name": "",
          "type": "string"
        }
      ],
      "stateMutability": "view",
      "type": "function"
    },
    {
      "inputs": [
        {
          "internalType": "uint256",
          "name": "",
          "type": "uint256"
        }
      ],
      "name": "isDeleted",
      "outputs": [
        {
          "internalType": "bool",
          "name": "",
          "type": "bool"
        }
      ],
      "stateMutability": "view",
      "type": "function"
    },
    {
      "inputs": [],
      "name": "recordId",
      "outputs": [
        {
          "internalType": "uint256",
          "name": "",
          "type": "uint256"
        }
      ],
      "stateMutability": "view",
      "type": "function"
    }
  ],
  "bytecode": "0x608060405234801561001057600080fd5b5061172b806100206000396000f3fe608060405234801561001057600080fd5b50600436106100f55760003560e01c806394182c3611610097578063b810793e11610066578063b810793e146102d7578063e06d2eb514610307578063f26c5f5f14610337578063f7dfe22b14610367576100f5565b806394182c361461022957806397f6c84c1461025957806399055dda14610289578063ab596946146102a7576100f5565b806333c3f9a4116100d357806333c3f9a41461017d5780636747f391146101995780636b8ff574146101c957806373c440db146101f9576100f5565b806303e9e609146100fa578063061f9811146101315780630e37008a1461014d575b600080fd5b610114600480360381019061010f9190610f3e565b610385565b604051610128989796959493929190611013565b60405180910390f35b61014b60048036038101906101469190610f3e565b610730565b005b61016760048036038101906101629190610f3e565b610839565b60405161017491906110bb565b60405180910390f35b6101976004803603810190610192919061120b565b610859565b005b6101b360048036038101906101ae9190610f3e565b6109e8565b6040516101c091906110bb565b60405180910390f35b6101e360048036038101906101de9190610f3e565b610a08565b6040516101f09190611355565b60405180910390f35b610213600480360381019061020e9190610f3e565b610ab0565b6040516102209190611355565b60405180910390f35b610243600480360381019061023e9190610f3e565b610b58565b6040516102509190611392565b60405180910390f35b610273600480360381019061026e9190610f3e565b610b78565b6040516102809190611355565b60405180910390f35b610291610c20565b60405161029e91906110bb565b60405180910390f35b6102c160048036038101906102bc9190610f3e565b610c29565b6040516102ce9190611392565b60405180910390f35b6102f160048036038101906102ec9190610f3e565b610c53565b6040516102fe9190611355565b60405180910390f35b610321600480360381019061031c9190610f3e565b610cfb565b60405161032e9190611355565b60405180910390f35b610351600480360381019061034c9190610f3e565b610da3565b60405161035e9190611355565b60405180910390f35b61036f610e4b565b60405161037c91906110bb565b60405180910390f35b60006060600060608060608060606000600160008b81526020019081526020016000209050806001015481600201826003015483600401846005018560060186600701876008018680546103d8906113dc565b80601f0160208091040260200160405190810160405280929190818152602001828054610404906113dc565b80156104515780601f1061042657610100808354040283529160200191610451565b820191906000526020600020905b81548152906001019060200180831161043457829003601f168201915b50505050509650848054610464906113dc565b80601f0160208091040260200160405190810160405280929190818152602001828054610490906113dc565b80156104dd5780601f106104b2576101008083540402835291602001916104dd565b820191906000526020600020905b8154815290600101906020018083116104c057829003601f168201915b505050505094508380546104f0906113dc565b80601f016020809104026020016040519081016040528092919081815260200182805461051c906113dc565b80156105695780601f1061053e57610100808354040283529160200191610569565b820191906000526020600020905b81548152906001019060200180831161054c57829003601f168201915b5050505050935082805461057c906113dc565b80601f01602080910402602001604051908101604052809291908181526020018280546105a8906113dc565b80156105f55780601f106105ca576101008083540402835291602001916105f5565b820191906000526020600020905b8154815290600101906020018083116105d857829003601f168201915b50505050509250818054610608906113dc565b80601f0160208091040260200160405190810160405280929190818152602001828054610634906113dc565b80156106815780601f1061065657610100808354040283529160200191610681565b820191906000526020600020905b81548152906001019060200180831161066457829003601f168201915b50505050509150808054610694906113dc565b80601f01602080910402602001604051908101604052809291908181526020018280546106c0906113dc565b801561070d5780601f106106e25761010080835404028352916020019161070d565b820191906000526020600020905b8154815290600101906020018083116106f057829003601f168201915b505050505090509850985098509850985098509850985050919395975091939597565b6002600082815260200190815260200160002060009054906101000a900460ff1615610791576040517f08c379a00000000000000000000000000000000000000000000000000000000081526004016107889061145a565b60405180910390fd5b60006001600083815260200190815260200160002090507f9f6d6d42feaf505d16bad36aa62866b87460b7e950ea40c554ef8bbfa8f0e5c681600001544283600201846003015485600401866005018760060188600701896008016040516108019998979695949392919061150f565b60405180910390a160016002600084815260200190815260200160002060006101000a81548160ff0219169083151502179055505050565b600060016000838152602001908152602001600020600301549050919050565b60008081548092919061086b906115f5565b91905055506040518061012001604052806000548152602001428152602001888152602001878152602001868152602001858152602001848152602001838152602001828152506001600080548152602001908152602001600020600082015181600001556020820151816001015560408201518160020190805190602001906108f6929190610e51565b5060608201518160030155608082015181600401908051906020019061091d929190610e51565b5060a082015181600501908051906020019061093a929190610e51565b5060c0820151816006019080519060200190610957929190610e51565b5060e0820151816007019080519060200190610974929190610e51565b50610100820151816008019080519060200190610992929190610e51565b509050507f3cd872dcecf0391593d478bf560910c59955e9a59702631641bd52b78cafd5db60005442898989898989896040516109d79998979695949392919061163e565b60405180910390a150505050505050565b600060016000838152602001908152602001600020600101549050919050565b6060600160008381526020019081526020016000206002018054610a2b906113dc565b80601f0160208091040260200160405190810160405280929190818152602001828054610a57906113dc565b8015610aa45780601f10610a7957610100808354040283529160200191610aa4565b820191906000526020600020905b815481529060010190602001808311610a8757829003601f168201915b50505050509050919050565b6060600160008381526020019081526020016000206007018054610ad3906113dc565b80601f0160208091040260200160405190810160405280929190818152602001828054610aff906113dc565b8015610b4c5780601f10610b2157610100808354040283529160200191610b4c565b820191906000526020600020905b815481529060010190602001808311610b2f57829003601f168201915b50505050509050919050565b60026020528060005260406000206000915054906101000a900460ff1681565b6060600160008381526020019081526020016000206006018054610b9b906113dc565b80601f0160208091040260200160405190810160405280929190818152602001828054610bc7906113dc565b8015610c145780601f10610be957610100808354040283529160200191610c14565b820191906000526020600020905b815481529060010190602001808311610bf757829003601f168201915b50505050509050919050565b60008054905090565b60006002600083815260200190815260200160002060009054906101000a900460ff169050919050565b6060600160008381526020019081526020016000206005018054610c76906113dc565b80601f0160208091040260200160405190810160405280929190818152602001828054610ca2906113dc565b8015610cef5780601f10610cc457610100808354040283529160200191610cef565b820191906000526020600020905b815481529060010190602001808311610cd257829003601f168201915b50505050509050919050565b6060600160008381526020019081526020016000206004018054610d1e906113dc565b80601f0160208091040260200160405190810160405280929190818152602001828054610d4a906113dc565b8015610d975780601f10610d6c57610100808354040283529160200191610d97565b820191906000526020600020905b815481529060010190602001808311610d7a57829003601f168201915b50505050509050919050565b6060600160008381526020019081526020016000206008018054610dc6906113dc565b80601f0160208091040260200160405190810160405280929190818152602001828054610df2906113dc565b8015610e3f5780601f10610e1457610100808354040283529160200191610e3f565b820191906000526020600020905b815481529060010190602001808311610e2257829003601f168201915b50505050509050919050565b60005481565b828054610e5d906113dc565b90600052602060002090601f016020900481019282610e7f5760008555610ec6565b82601f10610e9857805160ff1916838001178555610ec6565b82800160010185558215610ec6579182015b82811115610ec5578251825591602001919060010190610eaa565b5b509050610ed39190610ed7565b5090565b5b80821115610ef0576000816000905550600101610ed8565b5090565b6000604051905090565b600080fd5b600080fd5b6000819050919050565b610f1b81610f08565b8114610f2657600080fd5b50565b600081359050610f3881610f12565b92915050565b600060208284031215610f5457610f53610efe565b5b6000610f6284828501610f29565b91505092915050565b610f7481610f08565b82525050565b600081519050919050565b600082825260208201905092915050565b60005b83811015610fb4578082015181840152602081019050610f99565b83811115610fc3576000848401525b50505050565b6000601f19601f8301169050919050565b6000610fe582610f7a565b610fef8185610f85565b9350610fff818560208601610f96565b61100881610fc9565b840191505092915050565b600061010082019050611029600083018b610f6b565b818103602083015261103b818a610fda565b905061104a6040830189610f6b565b818103606083015261105c8188610fda565b905081810360808301526110708187610fda565b905081810360a08301526110848186610fda565b905081810360c08301526110988185610fda565b905081810360e08301526110ac8184610fda565b90509998505050505050505050565b60006020820190506110d06000830184610f6b565b92915050565b600080fd5b600080fd5b7f4e487b7100000000000000000000000000000000000000000000000000000000600052604160045260246000fd5b61111882610fc9565b810181811067ffffffffffffffff82111715611137576111366110e0565b5b80604052505050565b600061114a610ef4565b9050611156828261110f565b919050565b600067ffffffffffffffff821115611176576111756110e0565b5b61117f82610fc9565b9050602081019050919050565b82818337600083830152505050565b60006111ae6111a98461115b565b611140565b9050828152602081018484840111156111ca576111c96110db565b5b6111d584828561118c565b509392505050565b600082601f8301126111f2576111f16110d6565b5b813561120284826020860161119b565b91505092915050565b600080600080600080600060e0888a03121561122a57611229610efe565b5b600088013567ffffffffffffffff81111561124857611247610f03565b5b6112548a828b016111dd565b97505060206112658a828b01610f29565b965050604088013567ffffffffffffffff81111561128657611285610f03565b5b6112928a828b016111dd565b955050606088013567ffffffffffffffff8111156112b3576112b2610f03565b5b6112bf8a828b016111dd565b945050608088013567ffffffffffffffff8111156112e0576112df610f03565b5b6112ec8a828b016111dd565b93505060a088013567ffffffffffffffff81111561130d5761130c610f03565b5b6113198a828b016111dd565b92505060c088013567ffffffffffffffff81111561133a57611339610f03565b5b6113468a828b016111dd565b91505092959891949750929550565b6000602082019050818103600083015261136f8184610fda565b905092915050565b60008115159050919050565b61138c81611377565b82525050565b60006020820190506113a76000830184611383565b92915050565b7f4e487b7100000000000000000000000000000000000000000000000000000000600052602260045260246000fd5b600060028204905060018216806113f457607f821691505b60208210811415611408576114076113ad565b5b50919050565b7f546865207265636f726420697320616c72656164792064656c65746564000000600082015250565b6000611444601d83610f85565b915061144f8261140e565b602082019050919050565b6000602082019050818103600083015261147381611437565b9050919050565b60008190508160005260206000209050919050565b6000815461149c816113dc565b6114a68186610f85565b945060018216600081146114c157600181146114d357611506565b60ff1983168652602086019350611506565b6114dc8561147a565b60005b838110156114fe578154818901526001820191506020810190506114df565b808801955050505b50505092915050565b600061012082019050611525600083018c610f6b565b611532602083018b610f6b565b8181036040830152611544818a61148f565b90506115536060830189610f6b565b8181036080830152611565818861148f565b905081810360a0830152611579818761148f565b905081810360c083015261158d818661148f565b905081810360e08301526115a1818561148f565b90508181036101008301526115b6818461148f565b90509a9950505050505050505050565b7f4e487b7100000000000000000000000000000000000000000000000000000000600052601160045260246000fd5b600061160082610f08565b91507fffffffffffffffffffffffffffffffffffffffffffffffffffffffffffffffff821415611633576116326115c6565b5b600182019050919050565b600061012082019050611654600083018c610f6b565b611661602083018b610f6b565b8181036040830152611673818a610fda565b90506116826060830189610f6b565b81810360808301526116948188610fda565b905081810360a08301526116a88187610fda565b905081810360c08301526116bc8186610fda565b905081810360e08301526116d08185610fda565b90508181036101008301526116e58184610fda565b90509a995050505050505050505056fea2646970667358221220ad4873eacfe24608dd26a383cb355f4bae76de84439f44b1b18af539cabacc0c64736f6c63430008090033",
  "linkReferences": {},
  "deployedLinkReferences": {}
}